:020000040000FA
:060000000A128A11FB2F19
:100F44008316031788018901831603130910891076
:100F5400091183120313890183160313061408006D
:100F64000A128A11A2270A128A118312031306187D
:100F7400BC2FBD2FB72F0A128A11C6270A128A1155
:100F8400B72F0A128A1100288312031309110914B6
:100F940089100630F2001330F100AD30F000F00B90
:100FA400D12FF10BD12FF20BD12FD82F8312031392
:100FB400091089140630F2001330F100AD30F0004E
:100FC400F00BE22FF10BE22FF20BE22FE92F831249
:100FD4000313891009150630F2001330F100AD3007
:100FE400F000F00BF32FF10BF32FF20BF32FFA2F8A
:0C0FF4000800F30183010A128A11B22FD9
:04400E00D120FF3F7F
:00000001FF
