:020000040000FA
:060000000A128A11F92F1B
:100C9C00F501F60183120313051085108710071157
:100CAC0087110712871207138713881008118811F0
:100CBC00081288120813881308008316031788017A
:100CCC0089010A128A114E260A128A1183160313FD
:100CDC0009108910091107108710071187110712C5
:100CEC00871207138713081088100811881108122F
:100CFC0088120813881305108510831203138901B9
:100D0C0008008312031386188C2E8D2E9A2E013018
:100D1C00F0007008F607F730F100BF30F000F00B70
:100D2C00952EF10B952E9A2E8312031306199F2ED6
:100D3C00A02EAD2E0130F0007008F507F730F10051
:100D4C00BF30F000F00BA82EF10BA82EAD2E080032
:100D5C00831203130911091489100630F2001330A1
:100D6C00F100AD30F000F00BB92EF10BB92EF20BF7
:100D7C00B92EC02E83120313091089140630F20009
:100D8C001330F100AD30F000F00BCA2EF10BCA2E6F
:100D9C00F20BCA2ED12E83120313891009151030B1
:100DAC00F2003930F1000D30F000F00BDB2EF10BBE
:100DBC00DB2EF20BDB2EE22E83120313091108003B
:100DCC000A128A1163260A128A1183120313061857
:100DDC00F02EF12E202F0A128A114E260A128A1199
:100DEC000A128A11AE260A128A11F701F70A202F6D
:100DFC000A128A1129270A128A110A128A119127BA
:100E0C000A128A1183120313861C0D2F0E2F122F18
:100E1C000619112F122F202FF730F400BF30F300DA
:100E2C00F30B162FF40B162F1B2F0A128A11872681
:100E3C000A128A117708031D242F252FFE2EEB2E64
:100E4C000A128A1100286B2F831203130714902F98
:100E5C008312031307108714902F83120313871028
:100E6C000715902F8312031307118715902F8312E8
:100E7C00031387110716902F83120313071287167B
:100E8C00902F8312031387120717902F83120313CB
:100E9C0007138717902F8312031305140714871455
:100EAC00071587150716871607178717F7010230DE
:100EBC00F2000430F100BA30F000F00B632FF10BAC
:100ECC00632FF20B632F0000902F7608F000F101D6
:100EDC007108003A0319732F902F7008003A031908
:100EEC002A2F013A03192E2F033A0319332F013AF3
:100EFC000319382F073A03193D2F013A0319422FD2
:100F0C00033A0319472F013A03194C2F0F3A0319CF
:100F1C00512F902F0800D32F831203130814F82F8E
:100F2C008312031308108814F82F831203138810EC
:100F3C000815F82F8312031308118815F82F831244
:100F4C00031388110816F82F83120313081288163E
:100F5C00F82F8312031388120817F82F8312031328
:100F6C0008138817F82F8312031385140814881498
:100F7C00081588150816881608178817F701023007
:100F8C00F2000430F100BA30F000F00BCB2FF10B73
:100F9C00CB2FF20BCB2F0000F82F7508F000F101CE
:100FAC007108003A0319DB2FF82F7008003A031967
:100FBC00922F013A0319962F033A03199B2F013AEA
:100FCC000319A02F073A0319A52F013A0319AA2FC9
:100FDC00033A0319AF2F013A0319B42F0F3A03192F
:100FEC00B92FF82F0800F501F601F70183010A1259
:040FFC008A11E62E42
:04400E00D120FF3F7F
:00000001FF
